:100000000C942A000C9434000C9434000C943400AA
:100010000C9434000C9434000C9434000C94340090
:100020000C9434000C9434000C9434000C94340080
:100030000C9434000C9434000C9434000C94340070
:100040000C9434000C9434000C9434000C94340060
:100050000C94340011241FBECFE5D8E0DEBFCDBF25
:100060000E9436000C9485010C9400000E944C0004
:100070000E9452000E948600B09904C080E00E9455
:10008000560003C080E00E946E008FE39CE9019758
:10009000F1F700C00000F0CF88B340E060E00E94BC
:1000A0009F00089588B3816088BB0895813051F026
:1000B00018F0823069F0089541E060E083E00E942A
:1000C0001201089541E062E083E00E941201089568
:1000D00041E061E083E00E9412010895813081F0E7
:1000E00018F0823039F0089540E060E083E00E942B
:1000F0001201089540E061E083E00E94120108953A
:1001000040E062E083E00E941201089541E060E077
:1001100083E00E949F0080E00E946E0041E062E068
:1001200083E00E949F0081E00E946E0041E061E058
:1001300083E00E949F0082E00E946E000895683074
:1001400008F06FC0843008F06CC0813001F130F0ED
:100150008230B1F1833009F44CC00895413059F434
:100160002AB381E090E002C0880F991F6A95E2F7F8
:10017000822B8ABB08952AB381E090E002C0880FE9
:10018000991F6A95E2F7809582238ABB08954130D2
:1001900059F427B381E090E002C0880F991F6A9557
:1001A000E2F7822B87BB089527B381E090E002C07D
:1001B000880F991F6A95E2F78095822387BB08957F
:1001C000413059F424B381E090E002C0880F991FB8
:1001D0006A95E2F7822B84BB089524B381E090E016
:1001E00002C0880F991F6A95E2F78095822384BB2D
:1001F0000895413059F421B381E090E002C0880FA6
:10020000991F6A95E2F7822B81BB089521B381E0A3
:1002100090E002C0880F991F6A95E2F780958223CB
:1002200081BB0895683008F06FC0843008F06CC05E
:10023000813001F130F08230B1F1833009F44CC0EB
:100240000895413059F42BB381E090E002C0880F4B
:10025000991F6A95E2F7822B8BBB08952BB381E03F
:1002600090E002C0880F991F6A95E2F7809582237B
:100270008BBB0895413059F428B381E090E002C06F
:10028000880F991F6A95E2F7822B88BB089528B3DF
:1002900081E090E002C0880F991F6A95E2F780958F
:1002A000822388BB0895413059F425B381E090E062
:1002B00002C0880F991F6A95E2F7822B85BB0895CB
:1002C00025B381E090E002C0880F991F6A95E2F79C
:1002D0008095822385BB0895413059F422B381E093
:1002E00090E002C0880F991F6A95E2F7822B82BBCB
:1002F000089522B381E090E002C0880F991F6A95AB
:0E030000E2F78095822382BB0895F894FFCF28
:00000001FF
