:100000000C942A000C943F000C943F000C943F0089
:100010000C943F000C943F000C943F000C943F0064
:100020000C943F000C943F000C943F000C943F0054
:100030000C943F000C943F000C943F000C943F0044
:100040000C943F000C943F000C943F000C943F0034
:100050000C943F0011241FBECFE5D8E0DEBFCDBF1A
:1000600010E0A0E6B0E0E0E7F7E102C005900D92F5
:10007000A836B107D9F70E949B050C94B60B0C94D7
:100080000000EF92FF920F931F937B018C0120E001
:1000900030E040E05FE40E94410388238CF0C80117
:1000A000B70120E030E040E05FE40E94B9010E9427
:1000B000A1039B01AC01205030404040504806C095
:1000C000C801B7010E94A1039B01AC01B901CA019B
:1000D0001F910F91FF90EF900895A0E0B0E0E3E74B
:1000E000F0E00C947F0BDC012B01FA019C91923023
:1000F00008F439C1EB018881823008F433C19430AF
:1001000069F4843009F02FC111969C91119789816F
:10011000981709F428C1A0E6B0E025C1843009F49D
:1001200021C18230A9F4923009F01DC19A01AD01BC
:1001300088E0EA010990AE01E90109929E0181502F
:10014000C1F7E201898111969C918923818308C1BD
:10015000923009F407C112962D903C901397EB0151
:100160008A819B811496AD90BD90CD90DC901797BD
:10017000EC80FD800E811F819101281B390BB90194
:1001800037FF04C066277727621B730B6032710547
:100190000CF061C0121613066CF537014801062EEB
:1001A00004C096948794779467940A94D2F721E0D8
:1001B00030E040E050E004C0220F331F441F551FC1
:1001C0006A95D2F721503040404050402E213F21C7
:1001D00040235123211531054105510521F021E02E
:1001E00030E040E050E079018A01E628F72808294C
:1001F00019293CC0232BD1F1260E371E35014601AB
:10020000062E04C096948794779467940A94D2F744
:1002100021E030E040E050E004C0220F331F441FD3
:10022000551F6A95D2F721503040404050402A2156
:100230003B214C215D21211531054105510521F05E
:1002400021E030E040E050E059016A01A628B728DB
:10025000C828D9280BC0821593052CF01C01AA24AC
:10026000BB24650103C0EE24FF24870111969C91F5
:10027000D20111968C91981709F445C0992339F051
:10028000A80197012A193B094C095D0906C0A6017E
:1002900095012E193F09400B510B57FD08C01182E3
:1002A0003382228224833583468357831DC081E0B5
:1002B00081833382228288279927DC01821B930B5A
:1002C000A40BB50B84839583A683B7830DC0220F3F
:1002D000331F441F551F24833583468357838281F0
:1002E000938101979383828324813581468157814D
:1002F000DA01C9010197A109B1098F5F9F4FAF4F83
:10030000BF4328F30BC0918333822282EA0CFB1C8B
:100310000C1D1D1DE482F5820683178383E0808314
:10032000248135814681578157FF1AC0C901AA2708
:1003300097FDA095BA2F81709070A070B0705695FF
:10034000479537952795822B932BA42BB52B848328
:100350009583A683B7838281938101969383828359
:10036000DF0101C0D201CD01CDB7DEB7E2E10C94CF
:100370009B0BA0E2B0E0EFEBF1E00C948B0B6983F8
:100380007A838B839C832D833E834F835887E9E058
:10039000EE2EF12CEC0EFD1ECE010196B7010E944F
:1003A000CA048E010F5E1F4FCE010596B8010E9450
:1003B000CA048A8991E089278A8BC701B801AE01F6
:1003C000475E5F4F0E946D000E94F503A096E6E035
:1003D0000C94A70BA0E2B0E0E0EFF1E00C948B0BE3
:1003E00069837A838B839C832D833E834F835887D5
:1003F000F9E0EF2EF12CEC0EFD1ECE010196B701B7
:100400000E94CA048E010F5E1F4FCE010596B801EF
:100410000E94CA04C701B801AE01475E5F4F0E9447
:100420006D000E94F503A096E6E00C94A70BA0E2F5
:10043000B0E0EDE1F2E00C947F0B69837A838B836B
:100440009C832D833E834F835887CE010196BE0146
:10045000675F7F4F0E94CA04CE010596BE016F5EA2
:100460007F4F0E94CA049985923088F08989823032
:10047000C8F0943019F4823051F404C0843029F467
:10048000923081F480E690E0C6C0923049F420E0DA
:100490009A858A89981321E02A87CE010996BBC0E4
:1004A000823049F420E09A858A89981321E02A8BCA
:1004B000CE014196B0C02D843E844F8458886D880B
:1004C0007E888F88988CEE24FF248701AA24BB2481
:1004D000650140E050E060E070E0E0E0F0E0C10184
:1004E00081709070892BE9F0E60CF71C081D191D2E
:1004F0009A01AB012A0D3B1D4C1D5D1D80E090E073
:10050000A0E0B0E0E614F7040805190520F481E046
:1005100090E0A0E0B0E0BA01A901480F591F6A1F9E
:100520007B1FAA0CBB1CCC1CDD1C97FE08C081E005
:1005300090E0A0E0B0E0A82AB92ACA2ADB2A3196C6
:10054000E032F10549F0660C771C881C991C569422
:10055000479437942794C3CFFA85EA892B893C893D
:100560008B859C85280F391F2E5F3F4F17C0CA010E
:1005700081709070892B61F016950795F794E79438
:1005800080E090E0A0E0B0E8E82AF92A0A2B1B2BD3
:1005900076956795579547952F5F3F4F77FDE7CF46
:1005A0000CC0440F551F661F771F17FD4160EE0CEE
:1005B000FF1C001F111F21503040403090E05907B0
:1005C00090E0690790E4790760F32B8F3C8FDB01A3
:1005D000CA018F779070A070B07080349105A1052A
:1005E000B10561F447FD0AC0E114F10401051105EC
:1005F00029F0405C5F4F6F4F7F4F40781A8EFE1797
:1006000011F081E08A8F4D8F5E8F6F8F78A383E02A
:10061000898FCE0149960E94F503A096E2E10C94E1
:100620009B0BA8E1B0E0E7E1F3E00C948B0B69834E
:100630007A838B839C832D833E834F83588789E005
:10064000E82EF12CEC0EFD1ECE010196B7010E94A2
:10065000CA048E010F5E1F4FCE010596B8010E949D
:10066000CA048985823040F08989823028F0C70128
:10067000B8010E94420501C08FEF6896E6E00C9435
:10068000A70BA8E1B0E0E7E4F3E00C948B0B6983DF
:100690007A838B839C832D833E834F83588789E0A5
:1006A000E82EF12CEC0EFD1ECE010196B7010E9442
:1006B000CA048E010F5E1F4FCE010596B8010E943D
:1006C000CA048985823040F08989823028F0C701C8
:1006D000B8010E94420501C08FEF6896E6E00C94D5
:1006E000A70BA8E1B0E0E7E7F3E00C948B0B69837C
:1006F0007A838B839C832D833E834F83588789E045
:10070000E82EF12CEC0EFD1ECE010196B7010E94E1
:10071000CA048E010F5E1F4FCE010596B8010E94DC
:10072000CA048985823040F08989823028F0C70167
:10073000B8010E94420501C081E06896E6E00C9491
:10074000A70BACE0B0E0E7EAF3E00C948F0B698311
:100750007A838B839C83CE010196BE016B5F7F4FB2
:100760000E94CA048D81823061F1823050F1843060
:1007700021F48E81882351F12EC02F81388537FDD9
:1007800020C06E812F3131051CF06623F9F023C0A3
:100790008EE190E0821B930B29853A854B855C8521
:1007A00004C056954795379527958A95D2F76623C5
:1007B000B1F050954095309521953F4F4F4F5F4F89
:1007C0000EC020E030E040E050E009C02FEF3FEFE6
:1007D0004FEF5FE704C020E030E040E050E8B901AF
:1007E000CA012C96E2E00C94AB0BDF92EF92FF92E1
:1007F0000F931F93FC01E480F58006811781D1805F
:100800008081823048F480E090E0A0E1B0E0E82A06
:10081000F92A0A2B1B2BA5C0843009F49FC0823013
:1008200021F4EE24FF24870105C0E114F104010541
:10083000110519F4E0E0F0E096C0628173819FEF4A
:10084000623879070CF05BC022E83FEF261B370BBC
:100850002A3131052CF020E030E040E050E02AC0A1
:10086000B801A701022E04C0769567955795479564
:100870000A94D2F781E090E0A0E0B0E004C0880FD5
:10088000991FAA1FBB1F2A95D2F70197A109B10989
:100890008E219F21A023B1230097A105B10521F04E
:1008A00081E090E0A0E0B0E09A01AB01282B392B69
:1008B0004A2B5B2BDA01C9018F779070A070B07062
:1008C00080349105A105B10539F427FF09C0205CEA
:1008D0003F4F4F4F5F4F04C0215C3F4F4F4F5F4F23
:1008E000E0E0F0E02030A0E03A07A0E04A07A0E412
:1008F0005A0710F0E1E0F0E079018A0127C0603882
:10090000710564F5FB01E158FF4FD801C7018F77EE
:100910009070A070B07080349105A105B10539F4D4
:10092000E7FE0DC080E490E0A0E0B0E004C08FE3FB
:1009300090E0A0E0B0E0E80EF91E0A1F1B1F17FFB1
:1009400005C016950795F794E794319687E01695BC
:100950000795F794E7948A95D1F705C0EE24FF2414
:100960008701EFEFF0E06E2F679566276795902F70
:100970009F77D794DD24D7948E2F8695492F462BC9
:10098000582F5D29B701CA011F910F91FF90EF9079
:10099000DF900895FC01DB01408151812281622FAB
:1009A0006F7770E0221F2227221F9381892F880FE3
:1009B000822B282F30E0991F9927991F11969C931D
:1009C000119721153105A9F54115510561057105ED
:1009D00011F482E037C082E89FEF13969C938E93C8
:1009E00012979A01AB0167E0220F331F441F551F76
:1009F0006A95D1F783E08C930DC0220F331F441FFB
:100A0000551F12968D919C911397019713969C9365
:100A10008E931297203080E0380780E0480780E40A
:100A2000580758F314962D933D934D935C93179765
:100A300008952F3F310579F4411551056105710580
:100A400019F484E08C93089564FF03C081E08C93D3
:100A500012C01C9210C02F57304013963C932E9317
:100A6000129783E08C9387E0440F551F661F771F12
:100A70008A95D1F7706414964D935D936D937C9332
:100A8000179708951F93DC01FB019C91923008F4A5
:100A900047C08081823008F443C0943051F41196ED
:100AA0001C91843099F58181682F70E0611B710978
:100AB0003FC0843021F0923031F48230B9F181812D
:100AC000882389F12DC011961C9111978230F1F085
:100AD00081811817D9F412962D913C911397828138
:100AE00093818217930794F028173907BCF0149666
:100AF0008D919D910D90BC91A02D248135814681D1
:100B00005781281739074A075B0718F4112341F06A
:100B10000AC082179307A407B50740F4112319F000
:100B200061E070E005C06FEF7FEF02C060E070E051
:100B3000CB011F910895DF93CF93CDB7DEB7E89730
:100B40000FB6F894DEBF0FBECDBF0E94E20A0E942E
:100B5000630B0E94710BE0E3F0E08081882F90E04E
:100B600084709070009709F0E5C180E090E0A0EA01
:100B7000B1E48DAB9EABAFABB8AF6DA97EA98FA929
:100B800098AD20E030E04AE755E40E941702DC010E
:100B9000CB0189AB9AABABABBCAB69A97AA98BA9EA
:100BA0009CA920E030E040E85FE30E9471038823C5
:100BB0002CF481E090E098AB8FA73FC069A97AA997
:100BC0008BA99CA920E03FEF4FE757E40E94110357
:100BD00018164CF56DA97EA98FA998AD20E030E0DC
:100BE00040E251E40E941702DC01CB01BC01CD01BF
:100BF0000E944100DC01CB0198AB8FA70FC080E9B8
:100C000091E09EA78DA78DA59EA50197F1F79EA7C0
:100C10008DA78FA598A9019798AB8FA78FA598A9A5
:100C2000009769F714C069A97AA98BA99CA90E94A9
:100C30004100DC01CB0198AB8FA78FA598A99CA799
:100C40008BA78BA59CA50197F1F79CA78BA7E0E349
:100C5000F0E08081882F90E084709070009709F018
:100C60007ACF80E00E94010B80E090E0AAE7B4E434
:100C70008FA398A7A9A7BAA76FA178A589A59AA5B8
:100C800020E030E04AE755E40E941702DC01CB0186
:100C90008BA39CA3ADA3BEA36BA17CA18DA19EA1A0
:100CA00020E030E040E85FE30E94710388232CF4E9
:100CB00081E090E09AA389A33FC06BA17CA18DA1A4
:100CC0009EA120E03FEF4FE757E40E941103181662
:100CD0004CF56FA178A589A59AA520E030E040E207
:100CE00051E40E941702DC01CB01BC01CD010E943E
:100CF0004100DC01CB019AA389A30FC080E991E0F8
:100D000098A38F8F8F8D98A10197F1F798A38F8F5C
:100D100089A19AA101979AA389A389A19AA1009771
:100D200069F714C06BA17CA18DA19EA10E94410016
:100D3000DC01CB019AA389A389A19AA19E8F8D8FF3
:100D40008D8D9E8D0197F1F79E8F8D8F80E00E9493
:100D5000320B81E00E94010B80E090E0AAE7B4E44E
:100D6000898F9A8FAB8FBC8F698D7A8D8B8D9C8D7F
:100D700020E030E04AE755E40E941702DC01CB0195
:100D80008D8B9E8BAF8BB88F6D897E898F89988D67
:100D900020E030E040E85FE30E94710388232CF4F8
:100DA00081E090E09C8B8B8B3FC06D897E898F8921
:100DB000988D20E03FEF4FE757E40E94110318168B
:100DC0004CF5698D7A8D8B8D9C8D20E030E040E272
:100DD00051E40E941702DC01CB01BC01CD010E944D
:100DE0004100DC01CB019C8B8B8B0FC080E991E033
:100DF0009A8B898B89899A890197F1F79A8B898BCC
:100E00008B899C8901979C8B8B8B8B899C89009704
:100E100069F714C06D897E898F89988D0E94410081
:100E2000DC01CB019C8B8B8B8B899C89988B8F876A
:100E30008F8598890197F1F7988B8F8781E00E94C1
:100E4000320B82E00E94010B80E090E0AAE7B4E45C
:100E50008B879C87AD87BE876B857C858D859E85BE
:100E600020E030E04AE755E40E941702DC01CB01A4
:100E70008F839887A987BA876F81788589859A85B6
:100E800020E030E040E85FE30E94710388232CF407
:100E900081E090E09E838D833FC06F817885898556
:100EA0009A8520E03FEF4FE757E40E9411031816A0
:100EB0004CF56B857C858D859E8520E030E040E299
:100EC00051E40E941702DC01CB01BC01CD010E945C
:100ED0004100DC01CB019E838D830FC080E991E04E
:100EE0009C838B838B819C810197F1F79C838B83FF
:100EF0008D819E8101979E838D838D819E81009738
:100F000069F714C06F81788589859A850E944100B0
:100F1000DC01CB019E838D838D819E819A838983A1
:100F200089819A810197F1F79A83898382E00E94EF
:100F3000320B11CE80E00E94320B82E00E94320B15
:100F400081E00E94320B07CEDF93CF9300D000D018
:100F50000F92CDB7DEB789836A834B838A8188304D
:100F600008F0D5C08981843008F0D1C08981282F4C
:100F700030E03D832C838C819D818130910509F483
:100F800043C02C813D81223031052CF48C819D8120
:100F9000009771F0BCC02C813D812230310509F4ED
:100FA0005FC08C819D818330910509F485C0AFC0FD
:100FB0008B818130A1F4AAE3B0E0EAE3F0E0808124
:100FC000482F8A81282F30E081E090E0022E02C075
:100FD000880F991F0A94E2F7842B8C9398C0AAE398
:100FE000B0E0EAE3F0E08081482F8A81282F30E0EA
:100FF00081E090E0022E02C0880F991F0A94E2F768
:10100000809584238C9383C08B818130A1F4A7E3E6
:10101000B0E0E7E3F0E08081482F8A81282F30E0BC
:1010200081E090E0022E02C0880F991F0A94E2F737
:10103000842B8C936CC0A7E3B0E0E7E3F0E0808101
:10104000482F8A81282F30E081E090E0022E02C0F4
:10105000880F991F0A94E2F7809584238C9357C0D8
:101060008B818130A1F4A4E3B0E0E4E3F0E080817F
:10107000482F8A81282F30E081E090E0022E02C0C4
:10108000880F991F0A94E2F7842B8C9340C0A4E345
:10109000B0E0E4E3F0E08081482F8A81282F30E03F
:1010A00081E090E0022E02C0880F991F0A94E2F7B7
:1010B000809584238C932BC08B818130A1F4A1E394
:1010C000B0E0E1E3F0E08081482F8A81282F30E012
:1010D00081E090E0022E02C0880F991F0A94E2F787
:1010E000842B8C9314C0A1E3B0E0E1E3F0E08081B5
:1010F000482F8A81282F30E081E090E0022E02C044
:10110000880F991F0A94E2F7809584238C930F909F
:101110000F900F900F900F90CF91DF910895DF9374
:10112000CF9300D000D00F92CDB7DEB789836A830A
:101130004B838A81883008F0D5C08981843008F0DB
:10114000D1C08981282F30E03D832C838C819D8103
:101150008130910509F443C02C813D812230310555
:101160002CF48C819D81009771F0BCC02C813D8155
:101170002230310509F45FC08C819D818330910557
:1011800009F485C0AFC08B818130A1F4ABE3B0E03E
:10119000EBE3F0E08081482F8A81282F30E081E066
:1011A00090E0022E02C0880F991F0A94E2F7842B68
:1011B0008C9398C0ABE3B0E0EBE3F0E08081482F84
:1011C0008A81282F30E081E090E0022E02C0880F53
:1011D000991F0A94E2F7809584238C9383C08B81B6
:1011E0008130A1F4A8E3B0E0E8E3F0E08081482F8B
:1011F0008A81282F30E081E090E0022E02C0880F23
:10120000991F0A94E2F7842B8C936CC0A8E3B0E09A
:10121000E8E3F0E08081482F8A81282F30E081E0E8
:1012200090E0022E02C0880F991F0A94E2F7809581
:1012300084238C9357C08B818130A1F4A5E3B0E067
:10124000E5E3F0E08081482F8A81282F30E081E0BB
:1012500090E0022E02C0880F991F0A94E2F7842BB7
:101260008C9340C0A5E3B0E0E5E3F0E08081482F37
:101270008A81282F30E081E090E0022E02C0880FA2
:10128000991F0A94E2F7809584238C932BC08B815D
:101290008130A1F4A2E3B0E0E2E3F0E08081482FE6
:1012A0008A81282F30E081E090E0022E02C0880F72
:1012B000991F0A94E2F7842B8C9314C0A2E3B0E048
:1012C000E2E3F0E08081482F8A81282F30E081E03E
:1012D00090E0022E02C0880F991F0A94E2F78095D1
:1012E00084238C930F900F900F900F900F90CF91BD
:1012F000DF910895DF93CF9300D000D00F92CDB748
:10130000DEB78A836B8319828B81883008F084C0B2
:101310008A81843008F080C08A81282F30E03D83A4
:101320002C834C815D814130510579F18C819D8107
:101330008230910534F42C813D812115310569F00D
:101340006BC04C815D8142305105B9F18C819D812A
:101350008330910509F449C05FC0E9E3F0E0808182
:10136000282F30E08B81882F90E0A90102C055958D
:1013700047958A95E2F7CA0181709070882319F029
:1013800081E0898349C0198247C0E6E3F0E08081AB
:10139000282F30E08B81882F90E0A90102C055955D
:1013A00047958A95E2F7CA0181709070882319F0F9
:1013B00081E0898331C019822FC0E3E3F0E08081AE
:1013C000282F30E08B81882F90E0A90102C055952D
:1013D00047958A95E2F7CA0181709070882319F0C9
:1013E00081E0898319C0198217C0E0E3F0E08081B1
:1013F000282F30E08B81882F90E0A90102C05595FD
:1014000047958A95E2F7CA0181709070882319F098
:1014100081E0898301C0198289810F900F900F901C
:101420000F900F90CF91DF910895DF93CF9300D06D
:1014300000D0CDB7DEB789836A838981843090F587
:101440008981282F30E03C832B838B819C818130E4
:101450009105D1F02B813C81223031052CF48B8118
:101460009C81009761F01EC02B813C8122303105A8
:1014700081F08B819C818330910581F013C0EAE378
:10148000F0E08A8180830EC0E7E3F0E08A81808308
:1014900009C0E4E3F0E08A81808304C0E1E3F0E086
:1014A0008A8180830F900F900F900F90CF91DF91E2
:1014B0000895DF93CF9300D000D0CDB7DEB78983F6
:1014C0006A838981843090F58981282F30E03C83BC
:1014D0002B838B819C8181309105D1F02B813C81C4
:1014E000223031052CF48B819C81009761F01EC065
:1014F0002B813C812230310581F08B819C818330AE
:10150000910581F013C0EBE3F0E08A8180830EC087
:10151000E8E3F0E08A81808309C0E5E3F0E08A81B6
:10152000808304C0E2E3F0E08A8180830F900F9013
:101530000F900F90CF91DF910895DF93CF9300D05C
:1015400000D0CDB7DEB78A8319828A81843090F5C6
:101550008A81282F30E03C832B838B819C818130D2
:101560009105D1F02B813C81223031052CF48B8107
:101570009C81009761F01EC02B813C812230310597
:1015800081F08B819C818330910581F013C0E9E368
:10159000F0E0808189830EC0E6E3F0E080818983FA
:1015A00009C0E3E3F0E08081898304C0E0E3F0E078
:1015B0008081898389810F900F900F900F90CF9138
:1015C000DF910895DF93CF93CDB7DEB782E060E07F
:1015D00041E00E94A40780E00E94320B82E061E0BB
:1015E00041E00E94A40781E00E94320B82E062E0A9
:1015F00041E00E94A40782E00E94320BCF91DF916C
:101600000895DF93CF9300D00F92CDB7DEB78983D3
:101610008981282F30E03B832A838A819B81813016
:10162000910579F02A813B812230310581F08A8150
:101630009B81009789F482E060E041E00E948F087E
:101640000BC082E061E041E00E948F0805C082E0AB
:1016500062E041E00E948F080F900F900F90CF91B1
:10166000DF910895DF93CF9300D00F92CDB7DEB70F
:1016700089838981282F30E03B832A838A819B815B
:1016800081309105A9F02A813B812230310551F04A
:101690008A819B81009789F482E060E040E00E94AB
:1016A0008F080BC082E062E040E00E948F0805C016
:1016B00082E061E040E00E948F080F900F900F9051
:1016C000CF91DF910895DF93CF93CDB7DEB7E2E3FB
:1016D000F0E0808162E040E00E94A407CF91DF91BA
:1016E0000895DF93CF93CDB7DEB7A2E3B0E0E2E396
:1016F000F0E0808184608C93CF91DF9108952F92E8
:101700003F924F925F926F927F928F929F92AF9291
:10171000BF92CF92DF92EF92FF920F931F93CF93DE
:10172000DF93CDB7DEB7CA1BDB0B0FB6F894DEBF75
:101730000FBECDBF09942A88398848885F846E849B
:101740007D848C849B84AA84B984C884DF80EE80E5
:10175000FD800C811B81AA81B981CE0FD11D0FB6EE
:10176000F894DEBF0FBECDBFED010895F894FFCF12
:08177000000000000000000071
:00000001FF
