:100000000C943A000C944F000C944F000C944F0049
:100010000C944F000C944F000C944F000C944F0024
:100020000C944F000C944F000C944F000C944F0014
:100030000C944F000C944F000C944F000C944F0004
:100040000C944F000C944F000C944F000C944F00F4
:100050000C944F00CA01EA01CC01CE01D001D201BB
:10006000D401D601D801DA01DC01DE01E001E201B0
:10007000E401E60111241FBECFE5D8E0DEBFCDBF0D
:1000800010E0A0E6B0E0EAEFFAE002C005900D92C1
:10009000AE38B107D9F70E9451000C947B050C943F
:1000A0000000CF93DF93CDB7DEB72A970FB6F89451
:1000B000DEBF0FBECDBF0E94B6010E94BC010E94F0
:1000C0006A010E945A010E94A1030E94FF0340E6B8
:1000D00050E060E070E080E090E00E9496032FEF37
:1000E0008BE792E9215080409040E1F700C000008A
:1000F0000E94FF0345E650E060E070E081E090E0A0
:100100000E94960380E090E009C0E1E0F0E0EC0F8F
:10011000FD1FE80FF91F20E2208301968930910529
:10012000A4F31A8610E0CE010A960E94EC01892BF6
:10013000C1F0EFEFF3EC29E0E150F0402040E1F7AF
:1001400000C000008A858A3020F490E00E94E1031C
:1001500008C08D3019F40E94FF0303C090E00E9494
:10016000C702B09996C011111DC00E94FF0340E75D
:1001700050E060E070E080E090E00E949603AE0105
:100180004F5F5F4F60E070E081E090E00E94960377
:10019000AE014F5F5F4F60E070E081E090E00E9451
:1001A000960311E080E00E947C01AE014F5F5F4F3B
:1001B00060E070E081E090E00E9496034AE750E042
:1001C00060E070E081E090E00E94960380E090E0C3
:1001D00009C0B0990AC0EFE3FCE93197F1F700C01C
:1001E0000000019684369105A0F380E00E949901F9
:1001F000B09999CF81E00E947C01AE014F5F5F4FC3
:1002000060E070E081E090E00E9496034EE750E0ED
:1002100060E070E081E090E00E94960380E090E072
:1002200009C0B0990AC0EFE3FCE93197F1F700C0CB
:100230000000019684369105A0F381E00E949901A7
:10024000B09971CF82E00E947C01AE014F5F5F4F99
:1002500060E070E081E090E00E94960345E850E0A5
:1002600060E070E081E090E00E94960380E090E022
:1002700009C0B0990AC0EFE3FCE93197F1F700C07B
:100280000000019684369105A0F382E00E94990156
:100290004ACF0E945A01113009F045CF0E94FF0356
:1002A00045E650E060E070E080E090E00E94960358
:1002B00010E039CF40E060E083E00E947C0440E041
:1002C00061E083E00E947C0440E062E083E00E9401
:1002D0007C04089541E060E083E00E94090441E06D
:1002E00061E083E00E94090441E062E083E00E9453
:1002F00009040E945A010895CF93C82F0E945A0101
:10030000C13051F018F0C23069F011C041E060E036
:1003100083E00E947C040BC041E061E083E00E9426
:100320007C0405C041E062E083E00E947C04CF9140
:100330000895CF93C82F0E945A01C13051F018F090
:10034000C23069F011C040E060E083E00E947C04AC
:100350000BC040E061E083E00E947C0405C040E007
:1003600062E083E00E947C04CF91089588B340E06E
:1003700060E00E940904089588B3816088BB0895F5
:1003800090E0FC013197E031F10510F5E65DFF4F9B
:100390000C94350587E0089589E0089585E2089575
:1003A00084E0089585E0089586E008958AE208953E
:1003B00081E0089582E0089583E008958DE2089534
:1003C0008DE0089580E008958DE308958BE208950F
:1003D00080E0089588E008950F931F93CF93DF93F3
:1003E0008C01D0E027C040E06D2F81E00E947C04AA
:1003F000C0E018C064E06C0F81E00E94EF0481113E
:1004000010C08D2F880F880F8C0F8F5F0E94C00146
:10041000F801808341E06D2F81E00E947C0481E03F
:100420000CC0CF5FC43030F341E06D2F81E00E94FB
:100430007C04DF5FD430B8F280E0DF91CF911F9170
:100440000F910895CF93C82F40E060E080E00E94B4
:100450007C0489EF90E00197F1F700C0000041E0D3
:1004600061E080E00E947C0489EF90E00197F1F761
:1004700000C000004C2F407150E0559547955595B0
:100480004795559547955595479561E081E00E94C0
:100490007C044C2F407250E05595479555954795F3
:1004A00055954795559547955595479562E081E057
:1004B0000E947C044C2F407450E0042E452F000C09
:1004C000441F550B000C441F551F63E081E00E9440
:1004D0007C044C2F441F4427441F64E081E00E94A9
:1004E0007C0489EF90E00197F1F700C0000040E044
:1004F00061E080E00E947C0489EF90E00197F1F7D1
:1005000000C0000041E061E080E00E947C0489EFCF
:1005100090E00197F1F700C000004C2F417061E0BE
:1005200081E00E947C044C2F427050E05595479525
:1005300062E081E00E947C044C2F447050E05595AD
:1005400047955595479563E081E00E947C04C8700B
:100550004C2F50E05595479555954795559547959E
:1005600064E081E00E947C0489EF90E00197F1F75C
:1005700000C0000040E061E080E00E947C0489EF60
:1005800090E00197F1F700C00000CF910895CF935C
:10059000C82F41E060E080E00E947C0489EF90E099
:1005A0000197F1F700C0000041E061E080E00E94A7
:1005B0007C0489EF90E00197F1F700C000004C2F18
:1005C000407150E0559547955595479555954795F8
:1005D0005595479561E081E00E947C044C2F407264
:1005E00050E055954795559547955595479555959F
:1005F00047955595479562E081E00E947C044C2F19
:10060000407450E0042E452F000C441F550B000C85
:10061000441F551F63E081E00E947C044C2F441F5F
:100620004427441F64E081E00E947C0489EF90E04D
:100630000197F1F700C0000040E061E080E00E9417
:100640007C0489EF90E00197F1F700C0000041E0E1
:1006500061E080E00E947C0489EF90E00197F1F76F
:1006600000C000004C2F417061E081E00E947C04DA
:100670004C2F427050E05595479562E081E00E9412
:100680007C044C2F447050E05595479555954795FF
:1006900063E081E00E947C04C8704C2F50E05595C7
:1006A0004795559547955595479564E081E00E949B
:1006B0007C0489EF90E00197F1F700C0000040E072
:1006C00061E080E00E947C0489EF90E00197F1F7FF
:1006D00000C00000CF9108950F931F93CF938C011A
:1006E000C0E003C00E94C702CF5FF801EC0FF11D0C
:1006F00080818111F7CFCF911F910F9108958130A3
:1007000031F070F0823031F0833039F00AC090E47B
:10071000960F07C090E1960F04C090E5960F01C0B8
:10072000962F892F80680E9422020895CF93DF932D
:10073000EA010E947F03CE010E946C03DF91CF91FA
:10074000089541E060E080E00E94090441E061E03A
:1007500080E00E94090487E893E10197F1F700C067
:10076000000041E061E081E00E94090441E062E0B4
:1007700081E00E94090441E063E081E00E940904F5
:1007800041E064E081E00E94090483E30E942202C8
:1007900082E30E94220288E20E9422028CE00E94F0
:1007A000220281E00E94220283EF91E00197F1F79B
:1007B00000C000004BE850E060E080E00E9496033B
:1007C0000895CF93DF93CDB7DEB760970FB6F89457
:1007D000DEBF0FBECDBF4AE050E0BE016F5F7F4F6E
:1007E0000E943B05CE0101960E946C0360960FB6F5
:1007F000F894DEBF0FBECDBFDF91CF91089581E0A9
:100800000E9422024BE850E060E080E00E949603E4
:100810000895683008F06FC0843008F06CC08130F3
:1008200001F130F08230B1F1833009F44CC0089509
:10083000413059F42AB381E090E002C0880F991F3B
:100840006A95E2F7822B8ABB08952AB381E090E093
:1008500002C0880F991F6A95E2F7809582238ABBB0
:100860000895413059F427B381E090E002C0880F29
:10087000991F6A95E2F7822B87BB089527B381E021
:1008800090E002C0880F991F6A95E2F78095822355
:1008900087BB0895413059F424B381E090E002C051
:1008A000880F991F6A95E2F7822B84BB089524B3C1
:1008B00081E090E002C0880F991F6A95E2F7809569
:1008C000822384BB0895413059F421B381E090E044
:1008D00002C0880F991F6A95E2F7822B81BB0895A9
:1008E00021B381E090E002C0880F991F6A95E2F77A
:1008F0008095822381BB0895683008F06FC08430F2
:1009000008F06CC0813001F130F08230B1F18330F9
:1009100009F44CC00895413059F42BB381E090E0C4
:1009200002C0880F991F6A95E2F7822B8BBB08954E
:100930002BB381E090E002C0880F991F6A95E2F71F
:10094000809582238BBB0895413059F428B381E010
:1009500090E002C0880F991F6A95E2F7822B88BB4E
:10096000089528B381E090E002C0880F991F6A952E
:10097000E2F78095822388BB0895413059F425B36E
:1009800081E090E002C0880F991F6A95E2F7822B00
:1009900085BB089525B381E090E002C0880F991FC0
:1009A0006A95E2F78095822385BB0895413059F41A
:1009B00022B381E090E002C0880F991F6A95E2F7A8
:1009C000822B82BB089522B381E090E002C0880FA1
:1009D000991F6A95E2F78095822382BB089568305B
:1009E000B0F58430B0F5813089F028F08230C9F05C
:1009F000833011F130C089B390E002C0959587959E
:100A00006A95E2F780FF29C081E0089586B390E0FF
:100A100002C0959587956A95E2F780FF20C081E036
:100A2000089583B390E002C0959587956A95E2F7A3
:100A300080FF17C081E0089580B390E002C09595D3
:100A400087956A95E2F780FF0EC081E0089580E007
:100A5000089580E0089580E0089580E0089580E0A2
:100A6000089580E0089580E00895EE0FFF1F05903F
:100A7000F491E02D09944532510520F4423010F0F4
:100A80000C944605FB011082CB010895BB274A3028
:100A900031F4992322F4BDE2909581959F4F0C94F7
:100AA0005205BB27FB015527AA27880F991FAA1FAC
:100AB000A41710F0A41B83955051B9F7A05DAA3379
:100AC00008F0A95DA193009779F7B111B193119244
:100AD000CB010C946B05DC01FC01672F719177232E
:100AE000E1F7329704C07C916D9370836291AE17E9
:0A0AF000BF07C8F30895F894FFCF84
:100AFA00494545450053797374656D204F66660014
:100B0A0053797374656D204F4E0052454400594520
:0E0B1A004C4C4F5700475245454E00490000D5
:00000001FF
