:100000000C942A000C943F000C943F000C943F0089
:100010000C943F000C943F000C943F000C943F0064
:100020000C943F000C943F000C943F000C943F0054
:100030000C943F000C943F000C943F000C943F0044
:100040000C943F000C943F000C943F000C943F0034
:100050000C943F0011241FBECFE5D8E0DEBFCDBF1A
:1000600010E0A0E6B0E0E4E7F8E002C005900D92F1
:10007000AE38B107D9F70E9441000C9438040C94B3
:100080000000CF93DF93CDB7DEB729970FB6F89472
:10009000DEBF0FBECDBF0E947F010E9485010E947E
:1000A00033010E9423010E9408030E94480340E696
:1000B00050E060E070E080E090E00E94FD022FEFF1
:1000C0008BE792E9215080409040E1F700C00000AA
:1000D0000E94480345E650E060E070E081E090E077
:1000E0000E94FD0280E090E009C0E1E0F0E0EC0F4A
:1000F000FD1FE80FF91F20E220830196893091054A
:10010000A4F31A8610E0B0998DC0111114C00E949A
:10011000480340E750E060E070E080E090E00E943B
:10012000FD02AE014F5F5F4F60E070E081E090E064
:100130000E94FD0211E080E00E944501AE014F5F88
:100140005F4F60E070E081E090E00E94FD024AE7CE
:1001500050E060E070E081E090E00E94FD0280E00D
:1001600090E009C0B0990AC0EFE3FCE93197F1F7DC
:1001700000C00000019684369105A0F380E00E9443
:100180006201B099C0CF81E00E944501AE014F5F8E
:100190005F4F60E070E081E090E00E94FD024EE77A
:1001A00050E060E070E081E090E00E94FD0280E0BD
:1001B00090E009C0B0990AC0EFE3FCE93197F1F78C
:1001C00000C00000019684369105A0F381E00E94F2
:1001D0006201B09998CF82E00E944501AE014F5F65
:1001E0005F4F60E070E081E090E00E94FD0245E832
:1001F00050E060E070E081E090E00E94FD0280E06D
:1002000090E009C0B0990AC0EFE3FCE93197F1F73B
:1002100000C00000019684369105A0F382E00E94A0
:10022000620171CF0E942301113009F06CCF0E944E
:10023000480345E650E060E070E080E090E00E9416
:10024000FD0210E060CF40E060E083E00E94C50363
:1002500040E061E083E00E94C50340E062E083E0AB
:100260000E94C503089541E060E083E00E945203CC
:1002700041E061E083E00E94520341E062E083E0FC
:100280000E9452030E9423010895CF93C82F0E9419
:100290002301C13051F018F0C23069F011C041E0C3
:1002A00060E083E00E94C5030BC041E061E083E0B1
:1002B0000E94C50305C041E062E083E00E94C503DF
:1002C000CF910895CF93C82F0E942301C13051F0E0
:1002D00018F0C23069F011C040E060E083E00E9495
:1002E000C5030BC040E061E083E00E94C50305C088
:1002F00040E062E083E00E94C503CF91089588B397
:1003000040E060E00E945203089588B3816088BB9A
:100310000895CF93C82F40E060E080E00E94C503BD
:1003200089EF90E00197F1F700C0000041E061E043
:1003300080E00E94C50389EF90E00197F1F700C0CB
:1003400000004C2F407150E05595479555954795C5
:10035000559547955595479561E081E00E94C50305
:100360004C2F407250E055954795559547955595BA
:100370004795559547955595479562E081E00E94D0
:10038000C5034C2F407450E0042E452F000C441F31
:10039000550B000C441F551F63E081E00E94C5030C
:1003A0004C2F441F4427441F64E081E00E94C50392
:1003B00089EF90E00197F1F700C0000040E061E0B4
:1003C00080E00E94C50389EF90E00197F1F700C03B
:1003D000000041E061E080E00E94C50389EF90E009
:1003E0000197F1F700C000004C2F417061E081E0FF
:1003F0000E94C5034C2F427050E05595479562E02E
:1004000081E00E94C5034C2F447050E055954795FC
:100410005595479563E081E00E94C503C8704C2F55
:1004200050E055954795559547955595479564E006
:1004300081E00E94C50389EF90E00197F1F700C0C9
:10044000000040E061E080E00E94C50389EF90E099
:100450000197F1F700C00000CF910895CF93C82F06
:1004600041E060E080E00E94C50389EF90E00197E1
:10047000F1F700C0000041E061E080E00E94C503A8
:1004800089EF90E00197F1F700C000004C2F407118
:1004900050E05595479555954795559547955595F0
:1004A000479561E081E00E94C5034C2F407250E007
:1004B0005595479555954795559547955595479524
:1004C0005595479562E081E00E94C5034C2F40742A
:1004D00050E0042E452F000C441F550B000C441F08
:1004E000551F63E081E00E94C5034C2F441F442741
:1004F000441F64E081E00E94C50389EF90E001970A
:10050000F1F700C0000040E061E080E00E94C50318
:1005100089EF90E00197F1F700C0000041E061E051
:1005200080E00E94C50389EF90E00197F1F700C0D9
:1005300000004C2F417061E081E00E94C5034C2F08
:10054000427050E05595479562E081E00E94C503F6
:100550004C2F447050E0559547955595479563E06D
:1005600081E00E94C503C8704C2F50E05595479517
:10057000559547955595479564E081E00E94C503E0
:1005800089EF90E00197F1F700C0000040E061E0E2
:1005900080E00E94C50389EF90E00197F1F700C069
:1005A0000000CF9108950F931F93CF938C01C0E06B
:1005B00003C00E942E02CF5FF801EC0FF11D808175
:1005C0008111F7CFCF911F910F910895813031F0B4
:1005D00070F0823031F0833039F00AC090E4960F29
:1005E00007C090E1960F04C090E5960F01C0962FCA
:1005F000892F80680E9489010895CF93DF93EA01D3
:100600000E94E602CE010E94D302DF91CF910895AD
:1006100041E060E080E00E94520341E061E080E060
:100620000E94520387E893E10197F1F700C00000B0
:1006300041E061E081E00E94520341E062E081E03C
:100640000E94520341E063E081E00E94520341E0D6
:1006500064E081E00E94520383E30E94890182E307
:100660000E94890188E20E9489018CE00E94890130
:1006700081E00E94890183EF91E00197F1F700C0CA
:1006800000004BE850E060E080E00E94FD02089529
:1006900081E00E9489014BE850E060E080E00E9428
:1006A000FD020895683008F06FC0843008F06CC017
:1006B000813001F130F08230B1F1833009F44CC067
:1006C0000895413059F42AB381E090E002C0880FC8
:1006D000991F6A95E2F7822B8ABB08952AB381E0BD
:1006E00090E002C0880F991F6A95E2F780958223F7
:1006F0008ABB0895413059F427B381E090E002C0ED
:10070000880F991F6A95E2F7822B87BB089527B35C
:1007100081E090E002C0880F991F6A95E2F780950A
:10072000822387BB0895413059F424B381E090E0DF
:1007300002C0880F991F6A95E2F7822B84BB089547
:1007400024B381E090E002C0880F991F6A95E2F718
:100750008095822384BB0895413059F421B381E010
:1007600090E002C0880F991F6A95E2F7822B81BB47
:10077000089521B381E090E002C0880F991F6A9527
:10078000E2F78095822381BB0895683008F06FC03E
:10079000843008F06CC0813001F130F08230B1F16A
:1007A000833009F44CC00895413059F42BB381E0F3
:1007B00090E002C0880F991F6A95E2F7822B8BBBED
:1007C00008952BB381E090E002C0880F991F6A95CD
:1007D000E2F7809582238BBB0895413059F428B30A
:1007E00081E090E002C0880F991F6A95E2F7822BA2
:1007F00088BB089528B381E090E002C0880F991F5C
:100800006A95E2F78095822388BB0895413059F4B8
:1008100025B381E090E002C0880F991F6A95E2F746
:10082000822B85BB089525B381E090E002C0880F3C
:10083000991F6A95E2F78095822385BB0895413020
:1008400059F422B381E090E002C0880F991F6A95A5
:10085000E2F7822B82BB089522B381E090E002C0D0
:10086000880F991F6A95E2F78095822382BB0895CD
:04087000F894FFCF2A
:10087400494545450053797374656D204F6666009C
:1008840053797374656D204F4E00524544005945A9
:0E0894004C4C4F5700475245454E004900005E
:00000001FF
