:100000000C942A000C943F000C943F000C943F0089
:100010000C943F000C943F000C943F000C943F0064
:100020000C943F000C943F000C943F000C943F0054
:100030000C943F000C943F000C943F000C943F0044
:100040000C943F000C943F000C943F000C943F0034
:100050000C943F0011241FBECFE5D8E0DEBFCDBF1A
:1000600010E0A0E6B0E0ECE6F7E002C005900D92EB
:10007000AC37B107D9F70E9441000C94B4030C943B
:1000800000000E9431010E9437010E94E5000E9499
:10009000D5000E94D4010E94C40240E650E060E016
:1000A00070E080E090E00E94B9022FEF8BE792E9C8
:1000B000215080409040E1F700C000000E94C4023F
:1000C00041E750E060E070E081E090E00E94B9021A
:1000D000C0E0B09959C0C11113C00E94C40245E6E6
:1000E00050E066E070E081E090E00E94B90245E6F1
:1000F00050E06AE070E082E090E00E94B902C1E066
:1001000080E00E94F70080E090E009C0B0990AC04A
:10011000EFE3FCE93197F1F700C000000196843667
:100120009105A0F380E00E941401B099D2CF81E044
:100130000E94F70080E090E009C0B0990AC0EFE3A8
:10014000FCE93197F1F700C0000001968233910578
:10015000A0F381E00E941401B099BBCF82E00E941D
:10016000F70080E090E009C0B0990AC0EFE3FCE935
:100170003197F1F700C00000019684369105A0F395
:1001800082E00E941401A5CF0E94D500C13009F081
:10019000A0CF0E94C40240E750E066E070E081E03A
:1001A00090E00E94B902C0E094CF40E060E083E0BC
:1001B0000E94410340E061E083E00E94410340E08F
:1001C00062E083E00E944103089541E060E083E043
:1001D0000E94CE0241E061E083E00E94CE0241E055
:1001E00062E083E00E94CE020E94D5000895CF9382
:1001F000C82F0E94D500C13051F018F0C23069F00C
:1002000011C041E060E083E00E9441030BC041E087
:1002100061E083E00E94410305C041E062E083E0C9
:100220000E944103CF910895CF93C82F0E94D5001B
:10023000C13051F018F0C23069F011C040E060E008
:1002400083E00E9441030BC040E061E083E00E9434
:10025000410305C040E062E083E00E944103CF918A
:10026000089588B340E060E00E94CE02089588B30C
:10027000816088BB0895CF93C82F40E060E080E0A4
:100280000E9441034C2F407150E05595479555957C
:100290004795559547955595479561E081E00E94B2
:1002A00041034C2F407250E0559547955595479521
:1002B00055954795559547955595479562E081E049
:1002C0000E9441034C2F407450E0042E452F000C37
:1002D000441F550B000C441F551F63E081E00E9432
:1002E00041034C2F441F4427441F64E081E00E94D7
:1002F000410340E061E080E00E94410300C000C093
:10030000000041E061E080E00E94410300C000C0C5
:10031000000040E061E080E00E94410380E18A95B6
:10032000F1F700C04C2F417061E081E00E94410371
:100330004C2F427050E05595479562E081E00E9455
:1003400041034C2F447050E055954795559547957E
:1003500063E081E00E9441034C2F487050E05595C6
:100360004795559547955595479564E081E00E94DE
:10037000410341E061E080E00E944103000040E071
:1003800061E080E00E944103C150C23038F483EF45
:1003900091E00197F1F700C0000004C090E19A9548
:1003A000F1F700C0CF91089541E060E080E00E9445
:1003B000CE0241E061E080E00E94CE0287E893E156
:1003C0000197F1F700C0000041E061E081E00E9488
:1003D000CE0241E062E081E00E94CE0241E063E0B3
:1003E00081E00E94CE0241E064E081E00E94CE0202
:1003F00083E30E943B0182E30E943B0188E20E946A
:100400003B018CE00E943B0181E00E943B0183EFB5
:1004100091E00197F1F700C000000895CF93C82F35
:1004200041E060E080E00E9441034C2F407150E0C9
:1004300055954795559547955595479555954795A4
:1004400061E081E00E9441034C2F407250E05595DD
:100450004795559547955595479555954795559584
:10046000479562E081E00E9441034C2F407450E0C8
:10047000042E452F000C441F550B000C441F551F24
:1004800063E081E00E9441034C2F441F4427441F36
:1004900064E081E00E94410341E061E080E00E946D
:1004A0004103000040E061E080E00E9441034C2FE6
:1004B000417061E081E00E9441034C2F427050E0A6
:1004C0005595479562E081E00E9441034C2F4470AE
:1004D00050E0559547955595479563E081E00E941A
:1004E0004103C8704C2F50E0559547955595479559
:1004F0005595479564E081E00E94410341E061E049
:1005000080E00E944103000040E061E080E00E9442
:10051000410380E18A95F1F700C0CF9108950F93D0
:100520001F93CF938C01C0E003C00E940E02CF5FE7
:10053000F801EC0FF11D80818111F7CFCF911F9150
:100540000F910895813031F070F0823031F08330B6
:1005500039F00AC090E4960F07C090E1960F04C0EE
:1005600090E5960F01C0962F892F80680E943B016D
:100570000895CF93DF93EA010E94A202CE010E9468
:100580008F02DF91CF91089581E00E943B0183EFBC
:1005900091E00197F1F700C000000895683008F07D
:1005A0006FC0843008F06CC0813001F130F08230CF
:1005B000B1F1833009F44CC00895413059F42AB3A5
:1005C00081E090E002C0880F991F6A95E2F7822BC4
:1005D0008ABB08952AB381E090E002C0880F991F7A
:1005E0006A95E2F7809582238ABB0895413059F4D9
:1005F00027B381E090E002C0880F991F6A95E2F767
:10060000822B87BB089527B381E090E002C0880F5A
:10061000991F6A95E2F78095822387BB0895413040
:1006200059F424B381E090E002C0880F991F6A95C5
:10063000E2F7822B84BB089524B381E090E002C0EE
:10064000880F991F6A95E2F78095822384BB0895ED
:10065000413059F421B381E090E002C0880F991F26
:100660006A95E2F7822B81BB089521B381E090E087
:1006700002C0880F991F6A95E2F78095822381BB9B
:100680000895683008F06FC0843008F06CC0813085
:1006900001F130F08230B1F1833009F44CC008959B
:1006A000413059F42BB381E090E002C0880F991FCC
:1006B0006A95E2F7822B8BBB08952BB381E090E023
:1006C00002C0880F991F6A95E2F7809582238BBB41
:1006D0000895413059F428B381E090E002C0880FBA
:1006E000991F6A95E2F7822B88BB089528B381E0B1
:1006F00090E002C0880F991F6A95E2F780958223E7
:1007000088BB0895413059F425B381E090E002C0E0
:10071000880F991F6A95E2F7822B85BB089525B350
:1007200081E090E002C0880F991F6A95E2F78095FA
:10073000822385BB0895413059F422B381E090E0D3
:1007400002C0880F991F6A95E2F7822B82BB089539
:1007500022B381E090E002C0880F991F6A95E2F70A
:0C0760008095822382BB0895F894FFCF9F
:10076C0049454545002053797374656D204F4E0003
:0C077C002053797374656D204F66660091
:00000001FF
