:100000000C942A000C943F000C943F000C943F0089
:100010000C943F000C943F000C943F000C943F0064
:100020000C943F000C943F000C943F000C943F0054
:100030000C943F000C943F000C943F000C943F0044
:100040000C943F000C943F000C943F000C943F0034
:100050000C943F0011241FBECFE5D8E0DEBFCDBF1A
:1000600010E0A0E6B0E0ECE4F7E002C005900D92ED
:10007000A636B107D9F70E9441000C94A4030C9452
:1000800000000E9401010E9407010E94B5000E9429
:10009000A5000E94B00140E650E066E070E081E01B
:1000A00090E00E94B3022FEF8BE792E9215080404D
:1000B0009040E1F700C00000B09944C080E00E9489
:1000C000C70080E090E009C0B0990AC0EFE3FCE906
:1000D0003197F1F700C00000019684369105A0F336
:1000E00080E00E94E400B099E7CF81E00E94C70061
:1000F00080E090E009C0B0990AC0EFE3FCE93197D5
:10010000F1F700C00000019682339105A0F381E071
:100110000E94E400B099D0CF82E00E94C70080E046
:1001200090E009C0B0990AC0EFE3FCE93197F1F71C
:1001300000C00000019684369105A0F382E00E9481
:10014000E400BACF0E94A500B7CF40E060E083E0B2
:100150000E94310340E061E083E00E94310340E00F
:1001600062E083E00E943103089541E060E083E0B3
:100170000E94BE0241E061E083E00E94BE0241E0D5
:1001800062E083E00E94BE020E94A5000895CF9322
:10019000C82F0E94A500C13051F018F0C23069F09C
:1001A00011C041E060E083E00E9431030BC041E0F8
:1001B00061E083E00E94310305C041E062E083E03A
:1001C0000E943103CF910895CF93C82F0E94A500BC
:1001D000C13051F018F0C23069F011C040E060E069
:1001E00083E00E9431030BC040E061E083E00E94A5
:1001F000310305C040E062E083E00E943103CF910B
:10020000089588B340E060E00E94BE02089588B37C
:10021000816088BB0895CF93C82F40E060E080E004
:100220000E94310389EF90E00197F1F700C00000D0
:1002300041E061E080E00E94310389EF90E00197A6
:10024000F1F700C000004C2F407150E055954795E4
:1002500055954795559547955595479561E081E0AA
:100260000E9431034C2F407250E0559547955595AB
:10027000479555954795559547955595479562E00E
:1002800081E00E9431034C2F407450E0042E452F32
:10029000000C441F550B000C441F551F63E081E008
:1002A0000E9431034C2F441F4427441F64E081E027
:1002B0000E94310389EF90E00197F1F700C0000040
:1002C00040E061E080E00E94310389EF90E0019717
:1002D000F1F700C0000041E061E080E00E943103DE
:1002E00089EF90E00197F1F700C000004C2F4170BA
:1002F00061E081E00E9431034C2F427050E055953F
:10030000479562E081E00E9431034C2F447050E039
:10031000559547955595479563E081E00E943103D7
:10032000C8704C2F50E05595479555954795559574
:10033000479564E081E00E94310389EF90E00197E6
:10034000F1F700C0000040E061E080E00E9431036E
:1003500089EF90E00197F1F700C00000CF91089578
:1003600041E060E080E00E94BE0241E061E080E0A8
:100370000E94BE0287E893E10197F1F700C00000F8
:1003800041E061E081E00E94BE0241E062E081E084
:100390000E94BE0241E063E081E00E94BE0241E0B3
:1003A00064E081E00E94BE0283E30E940B0182E3CD
:1003B0000E940B0188E20E940B018CE00E940B015D
:1003C00081E00E940B010895CF93C82F41E060E0C7
:1003D00080E00E94310389EF90E00197F1F700C0BF
:1003E000000041E061E080E00E94310389EF90E08D
:1003F0000197F1F700C000004C2F407150E0559577
:10040000479555954795559547955595479561E07D
:1004100081E00E9431034C2F407250E05595479582
:1004200055954795559547955595479555954795B4
:1004300062E081E00E9431034C2F407450E0042EB2
:10044000452F000C441F550B000C441F551F63E043
:1004500081E00E9431034C2F441F4427441F64E075
:1004600081E00E94310389EF90E00197F1F700C02D
:10047000000040E061E080E00E94310389EF90E0FD
:100480000197F1F700C0000041E061E080E00E94C8
:10049000310389EF90E00197F1F700C000004C2F85
:1004A000417061E081E00E9431034C2F427050E0C6
:1004B0005595479562E081E00E9431034C2F4470CE
:1004C00050E0559547955595479563E081E00E942A
:1004D0003103C8704C2F50E0559547955595479579
:1004E0005595479564E081E00E94310389EF90E0E3
:1004F0000197F1F700C0000040E061E080E00E9459
:10050000310389EF90E00197F1F700C00000CF912F
:1005100008950F931F93CF938C01C0E003C00E94F6
:10052000E401CF5FF801EC0FF11D80818111F7CF5D
:10053000CF911F910F910895813031F070F082308A
:1005400031F0833039F00AC090E4960F07C090E193
:10055000960F04C090E5960F01C0962F892F8068F2
:100560000E940B010895CF93DF93EA010E949C0241
:10057000CE010E948902DF91CF910895683008F082
:100580006FC0843008F06CC0813001F130F08230EF
:10059000B1F1833009F44CC00895413059F42AB3C5
:1005A00081E090E002C0880F991F6A95E2F7822BE4
:1005B0008ABB08952AB381E090E002C0880F991F9A
:1005C0006A95E2F7809582238ABB0895413059F4F9
:1005D00027B381E090E002C0880F991F6A95E2F787
:1005E000822B87BB089527B381E090E002C0880F7B
:1005F000991F6A95E2F78095822387BB0895413061
:1006000059F424B381E090E002C0880F991F6A95E5
:10061000E2F7822B84BB089524B381E090E002C00E
:10062000880F991F6A95E2F78095822384BB08950D
:10063000413059F421B381E090E002C0880F991F46
:100640006A95E2F7822B81BB089521B381E090E0A7
:1006500002C0880F991F6A95E2F78095822381BBBB
:100660000895683008F06FC0843008F06CC08130A5
:1006700001F130F08230B1F1833009F44CC00895BB
:10068000413059F42BB381E090E002C0880F991FEC
:100690006A95E2F7822B8BBB08952BB381E090E043
:1006A00002C0880F991F6A95E2F7809582238BBB61
:1006B0000895413059F428B381E090E002C0880FDA
:1006C000991F6A95E2F7822B88BB089528B381E0D1
:1006D00090E002C0880F991F6A95E2F78095822307
:1006E00088BB0895413059F425B381E090E002C001
:1006F000880F991F6A95E2F7822B85BB089525B371
:1007000081E090E002C0880F991F6A95E2F780951A
:10071000822385BB0895413059F422B381E090E0F3
:1007200002C0880F991F6A95E2F7822B82BB089559
:1007300022B381E090E002C0880F991F6A95E2F72A
:0C0740008095822382BB0895F894FFCFBF
:06074C002049454545006F
:00000001FF
