S00E00005461736B5F352E73726563EF
S11300000C943A000C944F000C944F000C944F0045
S11300100C944F000C944F000C944F000C944F0020
S11300200C944F000C944F000C944F000C944F0010
S11300300C944F000C944F000C944F000C944F0000
S11300400C944F000C944F000C944F000C944F00F0
S11300500C944F00D800F800DA00DC00DE00E00069
S1130060E200E400E600E800EA00EC00EE00F00044
S1130070F200F40011241FBECFE5D8E0DEBFCDBFEF
S113008010E0A0E6B0E0E6E6F9E002C005900D92CB
S1130090A237B107D9F70E9451000C94B1040C9413
S11300A00000CF93DF931F92CDB7DEB70E94C40048
S11300B00E94CA000E94B2000E94A2000E94FA009C
S11300C00E94D7020E94350340E650E060E070E0F1
S11300D080E090E00E94CC022FEF83ED90E321506A
S11300E080409040E1F700C000000E94350345E6DF
S11300F050E060E070E081E090E00E94CC0280E09B
S113010090E001C0019688309105E4F3CE01019698
S11301100E942201892BD1F32FEF83EC99E0215027
S113012080409040E1F700C0000089818A3020F4CB
S113013090E00E941703EACF8D3041F390E00E94D3
S1130140FD01E4CF40E060E083E00E94B20340E0C0
S113015061E083E00E94B20340E062E083E00E9439
S1130160B203089541E060E083E00E943F0341E070
S113017061E083E00E943F0341E062E083E00E948B
S11301803F030E94A200089588B340E060E00E940B
S11301903F03089588B3816088BB089590E0FC0113
S11301A03197E031F10510F5E65DFF4F0C946B04D7
S11301B087E0089589E0089585E2089584E008952C
S11301C085E0089586E008958AE2089581E008951F
S11301D082E0089583E008958DE208958DE0089506
S11301E080E008958DE308958BE2089580E00895FA
S11301F088E00895CF93DF93C0E00BC041E06C2FFB
S113020082E00E943F0341E06C2F82E00E94B2032F
S1130210CF5FC43098F3C0E010C0D4E0DC0F40E0FE
S11302206D2F82E00E943F0300C000C0000041E047
S11302306D2F82E00E94B203CF5FC43070F3DF9170
S1130240CF9108950F931F93CF93DF938C01D0E048
S113025027C040E06D2F82E00E94B203C0E018C0C6
S113026064E06C0F82E00E942504811110C08D2F80
S1130270880F880F8C0F8F5F0E94CE00F801808357
S113028041E06D2F82E00E94B20381E00CC0CF5F99
S1130290C43030F341E06D2F82E00E94B203DF5F8F
S11302A0D430B8F280E0DF91CF911F910F9108957F
S11302B0CF93C82F40E060E080E00E94B20389EF52
S11302C090E00197F1F700C0000041E061E080E0B8
S11302D00E94B20389EF90E00197F1F700C000009B
S11302E04C2F407150E05595479555954795559538
S11302F047955595479561E081E00E94B2034C2FE4
S1130300407250E0559547955595479555954795B5
S1130310559547955595479562E081E00E94B20353
S11303204C2F407450E0042E452F000C441F550BF5
S1130330000C441F551F63E081E00E94B2034C2F60
S1130340441F4427441F64E081E00E94B20389EF04
S113035090E00197F1F700C0000040E061E080E028
S11303600E94B20389EF90E00197F1F700C000000A
S113037041E061E080E00E94B20389EF90E00197E0
S1130380F1F700C000004C2F417061E081E00E9451
S1130390B2034C2F427050E05595479562E081E0DE
S11303A00E94B2034C2F447050E0559547955595E3
S11303B0479563E081E00E94B203C8704C2F50E07F
S11303C055954795559547955595479564E081E032
S11303D00E94B20389EF90E00197F1F700C000009A
S11303E040E061E080E00E94B20389EF90E0019771
S11303F0F1F700C00000CF910895CF93C82F41E0DA
S113040060E080E00E94B20389EF90E00197F1F789
S113041000C0000041E061E080E00E94B20389EF87
S113042090E00197F1F700C000004C2F407150E0BC
S113043055954795559547955595479555954795A0
S113044061E081E00E94B2034C2F407250E0559568
S11304504795559547955595479555954795559580
S1130460479562E081E00E94B2034C2F407450E053
S1130470042E452F000C441F550B000C441F551F20
S113048063E081E00E94B2034C2F441F4427441FC1
S113049064E081E00E94B20389EF90E00197F1F7F4
S11304A000C0000040E061E080E00E94B20389EFF8
S11304B090E00197F1F700C0000041E061E080E0C6
S11304C00E94B20389EF90E00197F1F700C00000A9
S11304D04C2F417061E081E00E94B2034C2F4270C6
S11304E050E05595479562E081E00E94B2034C2F9D
S11304F0447050E0559547955595479563E081E0E4
S11305000E94B203C8704C2F50E0559547955595FD
S113051047955595479564E081E00E94B20389EFC1
S113052090E00197F1F700C0000040E061E080E056
S11305300E94B20389EF90E00197F1F700C0000038
S1130540CF9108950F931F93CF938C01C0E003C004
S11305500E94FD01CF5FF801EC0FF11D8081811134
S1130560F7CFCF911F910F910895813031F070F042
S1130570823031F0833039F00AC090E4960F07C01E
S113058090E1960F04C090E5960F01C0962F892F35
S113059080680E9458010895CF93DF93EA010E9476
S11305A0B502CE010E94A202DF91CF91089541E0ED
S11305B060E080E00E943F0341E061E080E00E944F
S11305C03F0387E893E10197F1F700C0000041E0A1
S11305D061E081E00E943F0341E062E081E00E942B
S11305E03F0341E063E081E00E943F0341E064E0B7
S11305F081E00E943F0383E30E94580182E30E944A
S1130600580188E20E9458018CE00E94580181E060
S11306100E94580183EF91E00197F1F700C00000B8
S113062040E750E060E080E00E94CC020895CF9360
S1130630DF93CDB7DEB760970FB6F894DEBF0FBE79
S1130640CDBF4AE050E0BE016F5F7F4F0E9471044E
S1130650CE0101960E94A20260960FB6F894DEBF06
S11306600FBECDBFDF91CF91089581E00E94580164
S113067040E750E060E080E00E94CC0208956830DA
S113068008F06FC0843008F06CC0813001F130F0A4
S11306908230B1F1833009F44CC00895413059F4EB
S11306A02AB381E090E002C0880F991F6A95E2F7AF
S11306B0822B8ABB08952AB381E090E002C0880FA0
S11306C0991F6A95E2F7809582238ABB0895413089
S11306D059F427B381E090E002C0880F991F6A950E
S11306E0E2F7822B87BB089527B381E090E002C034
S11306F0880F991F6A95E2F78095822387BB089536
S1130700413059F424B381E090E002C0880F991F6E
S11307106A95E2F7822B84BB089524B381E090E0CC
S113072002C0880F991F6A95E2F78095822384BBE3
S11307300895413059F421B381E090E002C0880F5C
S1130740991F6A95E2F7822B81BB089521B381E05A
S113075090E002C0880F991F6A95E2F78095822382
S113076081BB0895683008F06FC0843008F06CC015
S1130770813001F130F08230B1F1833009F44CC0A2
S11307800895413059F42BB381E090E002C0880F02
S1130790991F6A95E2F7822B8BBB08952BB381E0F6
S11307A090E002C0880F991F6A95E2F78095822332
S11307B08BBB0895413059F428B381E090E002C026
S11307C0880F991F6A95E2F7822B88BB089528B396
S11307D081E090E002C0880F991F6A95E2F7809546
S11307E0822388BB0895413059F425B381E090E019
S11307F002C0880F991F6A95E2F7822B85BB089582
S113080025B381E090E002C0880F991F6A95E2F752
S11308108095822385BB0895413059F422B381E049
S113082090E002C0880F991F6A95E2F7822B82BB81
S1130830089522B381E090E002C0880F991F6A9561
S1130840E2F78095822382BB08956830B0F5843046
S1130850B0F5813089F028F08230C9F0833011F18D
S113086030C089B390E002C0959587956A95E2F708
S113087080FF29C081E0089586B390E002C0959579
S113088087956A95E2F780FF20C081E0089583B3DD
S113089090E002C0959587956A95E2F780FF17C0AE
S11308A081E0089580B390E002C0959587956A959C
S11308B0E2F780FF0EC081E0089580E0089580E0B3
S11308C0089580E0089580E0089580E0089580E030
S11308D0089580E00895EE0FFF1F0590F491E02D38
S11308E009944532510520F4423010F00C947C04F4
S11308F0FB011082CB010895BB274A3031F49923C0
S113090022F4BDE2909581959F4F0C948804BB27F7
S1130910FB015527AA27880F991FAA1FA41710F0B7
S1130920A41B83955051B9F7A05DAA3308F0A95DC3
S1130930A193009779F7B111B1931192CB010C9463
S1130940A104DC01FC01672F71917723E1F7329751
S113095004C07C916D9370836291AE17BF07C8F396
S10909600895F894FFCF96
S1130966494545450053797374656D204F666600A5
S1050976490032
S9030000FC
