:100000000C942A000C9434000C9434000C943400AA
:100010000C9434000C9434000C9434000C94340090
:100020000C9434000C9434000C9434000C94340080
:100030000C9434000C9434000C9434000C94340070
:100040000C9434000C9434000C9434000C94340060
:100050000C94340011241FBECFE5D8E0DEBFCDBF25
:100060000E9436000C94D3010C9400000E9487007B
:100070000E948D000E94A1000E949100B09944C08E
:1000800080E00E94B30080E090E009C0B0990AC00F
:10009000E3ECF9E03197F1F700C0000001968436F7
:1000A0009105A0F380E00E94D000B099E7CF81E0F5
:1000B0000E94B30080E090E009C0B0990AC0E3EC70
:1000C000F9E03197F1F700C0000001968233910505
:1000D000A0F381E00E94D000B099D0CF82E00E94CE
:1000E000B30080E090E009C0B0990AC0E3ECF9E009
:1000F0003197F1F700C00000019684369105A0F316
:1001000082E00E94D000BACF0E949100B7CF88B39E
:1001100040E060E00E94ED00089588B3816088BBF4
:10012000089540E060E080E00E94600140E061E00E
:1001300080E00E94600140E062E080E00E94600197
:10014000089541E060E080E00E94ED0041E061E060
:1001500080E00E94ED0041E062E080E00E94ED005E
:100160000E9491000895CF93C82F0E949100C13042
:1001700051F018F0C23069F011C041E060E080E059
:100180000E9460010BC041E061E080E00E946001DC
:1001900005C041E062E080E00E946001CF910895D7
:1001A000CF93C82F0E949100C13051F018F0C23097
:1001B00069F011C040E060E080E00E9460010BC087
:1001C00040E061E080E00E94600105C040E062E044
:1001D00080E00E946001CF910895683008F06FC000
:1001E000843008F06CC0813001F130F08230B1F120
:1001F000833009F44CC00895413059F42AB381E0AA
:1002000090E002C0880F991F6A95E2F7822B8ABBA3
:1002100008952AB381E090E002C0880F991F6A9583
:10022000E2F7809582238ABB0895413059F427B3C1
:1002300081E090E002C0880F991F6A95E2F7822B57
:1002400087BB089527B381E090E002C0880F991F13
:100250006A95E2F78095822387BB0895413059F46F
:1002600024B381E090E002C0880F991F6A95E2F7FD
:10027000822B84BB089524B381E090E002C0880FF4
:10028000991F6A95E2F78095822384BB08954130D7
:1002900059F421B381E090E002C0880F991F6A955C
:1002A000E2F7822B81BB089521B381E090E002C088
:1002B000880F991F6A95E2F78095822381BB089584
:1002C000683008F06FC0843008F06CC0813001F1F4
:1002D00030F08230B1F1833009F44CC008954130E0
:1002E00059F42BB381E090E002C0880F991F6A9502
:1002F000E2F7822B8BBB08952BB381E090E002C024
:10030000880F991F6A95E2F7809582238BBB089529
:10031000413059F428B381E090E002C0880F991F62
:100320006A95E2F7822B88BB089528B381E090E0BC
:1003300002C0880F991F6A95E2F78095822388BBD7
:100340000895413059F425B381E090E002C0880F50
:10035000991F6A95E2F7822B85BB089525B381E04A
:1003600090E002C0880F991F6A95E2F7809582237A
:1003700085BB0895413059F422B381E090E002C07A
:10038000880F991F6A95E2F7822B82BB089522B3EA
:1003900081E090E002C0880F991F6A95E2F780958E
:0A03A000822382BB0895F894FFCF7A
:00000001FF
