S00E0000546573745F332E73726563E4
S11300000C942A000C943F000C943F000C943F0085
S11300100C943F000C943F000C943F000C943F0060
S11300200C943F000C943F000C943F000C943F0050
S11300300C943F000C943F000C943F000C943F0040
S11300400C943F000C943F000C943F000C943F0030
S11300500C943F0011241FBECFE5D8E0DEBFCDBF16
S113006010E0A0E6B0E0E2E8F1E002C005900D92F5
S1130070A438B107D9F70E9441000C94BF000C9436
S1130080000080E895E20E94690080E690E00E940A
S113009090002FEF8BE792E9215080409040E1F7E8
S11300A000C00000C0E3CF5F81E790E00E949000B1
S11300B08C2F0E948C008BE790E00E9490002FEF21
S11300C083ED90E3215080409040E1F700C00000B0
S11300D0EACFA0E0B0E0880F991FAA1FBB1F880FCA
S11300E0991FAA1FBB1F9C01AD01220F331F441F80
S11300F0551F220F331F441F551F60E074E284EF25
S113010090E00E949D002150310930BD29B988E05A
S11301108AB986E880BD08955D9BFECF8CB90895A9
S1130120CF93DF93EC0103C021960E948C00888159
S11301308111FACFDF91CF910895A1E21A2EAA1B63
S1130140BB1BFD010DC0AA1FBB1FEE1FFF1FA21783
S1130150B307E407F50720F0A21BB30BE40BF50B80
S1130160661F771F881F991F1A9469F76095709509
S1130170809590959B01AC01BD01CF010895F89441
S1050180FFCFAB
S113018253797374656D20537461727465640D0AD6
S113019200436F756E746572203A00206E756D208F
S10701A20D0A00003E
S9030000FC
